{
  "_format": "hh-sol-artifact-1",
  "contractName": "MyEpicGame",
  "sourceName": "contracts/MyEpicGame.sol",
  "abi": [
    {
      "inputs": [
        {
          "internalType": "string[]",
          "name": "characterNames",
          "type": "string[]"
        },
        {
          "internalType": "string[]",
          "name": "characterImageURIs",
          "type": "string[]"
        },
        {
          "internalType": "uint256[]",
          "name": "characterHp",
          "type": "uint256[]"
        },
        {
          "internalType": "uint256[]",
          "name": "characterAttackDmg",
          "type": "uint256[]"
        },
        {
          "internalType": "string",
          "name": "bossName",
          "type": "string"
        },
        {
          "internalType": "string",
          "name": "bossImageURI",
          "type": "string"
        },
        {
          "internalType": "uint256",
          "name": "bossHp",
          "type": "uint256"
        },
        {
          "internalType": "uint256",
          "name": "bossAttackDamage",
          "type": "uint256"
        }
      ],
      "stateMutability": "nonpayable",
      "type": "constructor"
    },
    {
      "anonymous": false,
      "inputs": [
        {
          "indexed": true,
          "internalType": "address",
          "name": "owner",
          "type": "address"
        },
        {
          "indexed": true,
          "internalType": "address",
          "name": "approved",
          "type": "address"
        },
        {
          "indexed": true,
          "internalType": "uint256",
          "name": "tokenId",
          "type": "uint256"
        }
      ],
      "name": "Approval",
      "type": "event"
    },
    {
      "anonymous": false,
      "inputs": [
        {
          "indexed": true,
          "internalType": "address",
          "name": "owner",
          "type": "address"
        },
        {
          "indexed": true,
          "internalType": "address",
          "name": "operator",
          "type": "address"
        },
        {
          "indexed": false,
          "internalType": "bool",
          "name": "approved",
          "type": "bool"
        }
      ],
      "name": "ApprovalForAll",
      "type": "event"
    },
    {
      "anonymous": false,
      "inputs": [
        {
          "indexed": false,
          "internalType": "uint256",
          "name": "newBossHp",
          "type": "uint256"
        },
        {
          "indexed": false,
          "internalType": "uint256",
          "name": "newPlayerHp",
          "type": "uint256"
        }
      ],
      "name": "AttackComplete",
      "type": "event"
    },
    {
      "anonymous": false,
      "inputs": [
        {
          "indexed": false,
          "internalType": "address",
          "name": "sender",
          "type": "address"
        },
        {
          "indexed": false,
          "internalType": "uint256",
          "name": "tokenId",
          "type": "uint256"
        },
        {
          "indexed": false,
          "internalType": "uint256",
          "name": "characterIndex",
          "type": "uint256"
        }
      ],
      "name": "CharacterNFTMinted",
      "type": "event"
    },
    {
      "anonymous": false,
      "inputs": [
        {
          "indexed": true,
          "internalType": "address",
          "name": "from",
          "type": "address"
        },
        {
          "indexed": true,
          "internalType": "address",
          "name": "to",
          "type": "address"
        },
        {
          "indexed": true,
          "internalType": "uint256",
          "name": "tokenId",
          "type": "uint256"
        }
      ],
      "name": "Transfer",
      "type": "event"
    },
    {
      "inputs": [
        {
          "internalType": "address",
          "name": "to",
          "type": "address"
        },
        {
          "internalType": "uint256",
          "name": "tokenId",
          "type": "uint256"
        }
      ],
      "name": "approve",
      "outputs": [],
      "stateMutability": "nonpayable",
      "type": "function"
    },
    {
      "inputs": [],
      "name": "attackBoss",
      "outputs": [],
      "stateMutability": "nonpayable",
      "type": "function"
    },
    {
      "inputs": [
        {
          "internalType": "address",
          "name": "owner",
          "type": "address"
        }
      ],
      "name": "balanceOf",
      "outputs": [
        {
          "internalType": "uint256",
          "name": "",
          "type": "uint256"
        }
      ],
      "stateMutability": "view",
      "type": "function"
    },
    {
      "inputs": [],
      "name": "bigBoss",
      "outputs": [
        {
          "internalType": "string",
          "name": "name",
          "type": "string"
        },
        {
          "internalType": "string",
          "name": "imageURI",
          "type": "string"
        },
        {
          "internalType": "uint256",
          "name": "hp",
          "type": "uint256"
        },
        {
          "internalType": "uint256",
          "name": "maxHp",
          "type": "uint256"
        },
        {
          "internalType": "uint256",
          "name": "attackDamage",
          "type": "uint256"
        }
      ],
      "stateMutability": "view",
      "type": "function"
    },
    {
      "inputs": [],
      "name": "checkIfUserHasNFT",
      "outputs": [
        {
          "components": [
            {
              "internalType": "uint256",
              "name": "characterIndex",
              "type": "uint256"
            },
            {
              "internalType": "string",
              "name": "name",
              "type": "string"
            },
            {
              "internalType": "string",
              "name": "imageURI",
              "type": "string"
            },
            {
              "internalType": "uint256",
              "name": "hp",
              "type": "uint256"
            },
            {
              "internalType": "uint256",
              "name": "maxHp",
              "type": "uint256"
            },
            {
              "internalType": "uint256",
              "name": "attackDamage",
              "type": "uint256"
            }
          ],
          "internalType": "struct MyEpicGame.CharacterAttributes",
          "name": "",
          "type": "tuple"
        }
      ],
      "stateMutability": "view",
      "type": "function"
    },
    {
      "inputs": [],
      "name": "getAllDefaultCharacters",
      "outputs": [
        {
          "components": [
            {
              "internalType": "uint256",
              "name": "characterIndex",
              "type": "uint256"
            },
            {
              "internalType": "string",
              "name": "name",
              "type": "string"
            },
            {
              "internalType": "string",
              "name": "imageURI",
              "type": "string"
            },
            {
              "internalType": "uint256",
              "name": "hp",
              "type": "uint256"
            },
            {
              "internalType": "uint256",
              "name": "maxHp",
              "type": "uint256"
            },
            {
              "internalType": "uint256",
              "name": "attackDamage",
              "type": "uint256"
            }
          ],
          "internalType": "struct MyEpicGame.CharacterAttributes[]",
          "name": "",
          "type": "tuple[]"
        }
      ],
      "stateMutability": "view",
      "type": "function"
    },
    {
      "inputs": [
        {
          "internalType": "uint256",
          "name": "tokenId",
          "type": "uint256"
        }
      ],
      "name": "getApproved",
      "outputs": [
        {
          "internalType": "address",
          "name": "",
          "type": "address"
        }
      ],
      "stateMutability": "view",
      "type": "function"
    },
    {
      "inputs": [],
      "name": "getBigBoss",
      "outputs": [
        {
          "components": [
            {
              "internalType": "string",
              "name": "name",
              "type": "string"
            },
            {
              "internalType": "string",
              "name": "imageURI",
              "type": "string"
            },
            {
              "internalType": "uint256",
              "name": "hp",
              "type": "uint256"
            },
            {
              "internalType": "uint256",
              "name": "maxHp",
              "type": "uint256"
            },
            {
              "internalType": "uint256",
              "name": "attackDamage",
              "type": "uint256"
            }
          ],
          "internalType": "struct MyEpicGame.BigBoss",
          "name": "",
          "type": "tuple"
        }
      ],
      "stateMutability": "view",
      "type": "function"
    },
    {
      "inputs": [
        {
          "internalType": "address",
          "name": "owner",
          "type": "address"
        },
        {
          "internalType": "address",
          "name": "operator",
          "type": "address"
        }
      ],
      "name": "isApprovedForAll",
      "outputs": [
        {
          "internalType": "bool",
          "name": "",
          "type": "bool"
        }
      ],
      "stateMutability": "view",
      "type": "function"
    },
    {
      "inputs": [
        {
          "internalType": "uint256",
          "name": "_characterIndex",
          "type": "uint256"
        }
      ],
      "name": "mintCharacterNFT",
      "outputs": [],
      "stateMutability": "nonpayable",
      "type": "function"
    },
    {
      "inputs": [],
      "name": "name",
      "outputs": [
        {
          "internalType": "string",
          "name": "",
          "type": "string"
        }
      ],
      "stateMutability": "view",
      "type": "function"
    },
    {
      "inputs": [
        {
          "internalType": "uint256",
          "name": "",
          "type": "uint256"
        }
      ],
      "name": "nftHolderAttributes",
      "outputs": [
        {
          "internalType": "uint256",
          "name": "characterIndex",
          "type": "uint256"
        },
        {
          "internalType": "string",
          "name": "name",
          "type": "string"
        },
        {
          "internalType": "string",
          "name": "imageURI",
          "type": "string"
        },
        {
          "internalType": "uint256",
          "name": "hp",
          "type": "uint256"
        },
        {
          "internalType": "uint256",
          "name": "maxHp",
          "type": "uint256"
        },
        {
          "internalType": "uint256",
          "name": "attackDamage",
          "type": "uint256"
        }
      ],
      "stateMutability": "view",
      "type": "function"
    },
    {
      "inputs": [
        {
          "internalType": "address",
          "name": "",
          "type": "address"
        }
      ],
      "name": "nftHolders",
      "outputs": [
        {
          "internalType": "uint256",
          "name": "",
          "type": "uint256"
        }
      ],
      "stateMutability": "view",
      "type": "function"
    },
    {
      "inputs": [
        {
          "internalType": "uint256",
          "name": "tokenId",
          "type": "uint256"
        }
      ],
      "name": "ownerOf",
      "outputs": [
        {
          "internalType": "address",
          "name": "",
          "type": "address"
        }
      ],
      "stateMutability": "view",
      "type": "function"
    },
    {
      "inputs": [
        {
          "internalType": "address",
          "name": "from",
          "type": "address"
        },
        {
          "internalType": "address",
          "name": "to",
          "type": "address"
        },
        {
          "internalType": "uint256",
          "name": "tokenId",
          "type": "uint256"
        }
      ],
      "name": "safeTransferFrom",
      "outputs": [],
      "stateMutability": "nonpayable",
      "type": "function"
    },
    {
      "inputs": [
        {
          "internalType": "address",
          "name": "from",
          "type": "address"
        },
        {
          "internalType": "address",
          "name": "to",
          "type": "address"
        },
        {
          "internalType": "uint256",
          "name": "tokenId",
          "type": "uint256"
        },
        {
          "internalType": "bytes",
          "name": "_data",
          "type": "bytes"
        }
      ],
      "name": "safeTransferFrom",
      "outputs": [],
      "stateMutability": "nonpayable",
      "type": "function"
    },
    {
      "inputs": [
        {
          "internalType": "address",
          "name": "operator",
          "type": "address"
        },
        {
          "internalType": "bool",
          "name": "approved",
          "type": "bool"
        }
      ],
      "name": "setApprovalForAll",
      "outputs": [],
      "stateMutability": "nonpayable",
      "type": "function"
    },
    {
      "inputs": [
        {
          "internalType": "bytes4",
          "name": "interfaceId",
          "type": "bytes4"
        }
      ],
      "name": "supportsInterface",
      "outputs": [
        {
          "internalType": "bool",
          "name": "",
          "type": "bool"
        }
      ],
      "stateMutability": "view",
      "type": "function"
    },
    {
      "inputs": [],
      "name": "symbol",
      "outputs": [
        {
          "internalType": "string",
          "name": "",
          "type": "string"
        }
      ],
      "stateMutability": "view",
      "type": "function"
    },
    {
      "inputs": [
        {
          "internalType": "uint256",
          "name": "_tokenId",
          "type": "uint256"
        }
      ],
      "name": "tokenURI",
      "outputs": [
        {
          "internalType": "string",
          "name": "",
          "type": "string"
        }
      ],
      "stateMutability": "view",
      "type": "function"
    },
    {
      "inputs": [
        {
          "internalType": "address",
          "name": "from",
          "type": "address"
        },
        {
          "internalType": "address",
          "name": "to",
          "type": "address"
        },
        {
          "internalType": "uint256",
          "name": "tokenId",
          "type": "uint256"
        }
      ],
      "name": "transferFrom",
      "outputs": [],
      "stateMutability": "nonpayable",
      "type": "function"
    }
  ],
  "bytecode": "0x60806040523480156200001157600080fd5b50604051620057f4380380620057f4833981810160405281019062000037919062000a5a565b6040518060400160405280600681526020017f4865726f657300000000000000000000000000000000000000000000000000008152506040518060400160405280600481526020017f4845524f000000000000000000000000000000000000000000000000000000008152508160009080519060200190620000bb929190620007ed565b508060019080519060200190620000d4929190620007ed565b5050506040518060a0016040528085815260200184815260200183815260200183815260200182815250600960008201518160000190805190602001906200011e929190620007ed565b5060208201518160010190805190602001906200013d929190620007ed565b50604082015181600201556060820151816003015560808201518160040155905050620002c06040518060600160405280602a8152602001620057ca602a9139600960000180546200018f9062000de5565b80601f0160208091040260200160405190810160405280929190818152602001828054620001bd9062000de5565b80156200020e5780601f10620001e2576101008083540402835291602001916200020e565b820191906000526020600020905b815481529060010190602001808311620001f057829003601f168201915b5050505050600960020154600960010180546200022b9062000de5565b80601f0160208091040260200160405190810160405280929190818152602001828054620002599062000de5565b8015620002aa5780601f106200027e57610100808354040283529160200191620002aa565b820191906000526020600020905b8154815290600101906020018083116200028c57829003601f168201915b50505050506200070260201b62001d7e1760201c565b60005b8851811015620006dc5760076040518060c001604052808381526020018b84815181106200031a577f4e487b7100000000000000000000000000000000000000000000000000000000600052603260045260246000fd5b602002602001015181526020018a848151811062000361577f4e487b7100000000000000000000000000000000000000000000000000000000600052603260045260246000fd5b60200260200101518152602001898481518110620003a8577f4e487b7100000000000000000000000000000000000000000000000000000000600052603260045260246000fd5b60200260200101518152602001898481518110620003ef577f4e487b7100000000000000000000000000000000000000000000000000000000600052603260045260246000fd5b6020026020010151815260200188848151811062000436577f4e487b7100000000000000000000000000000000000000000000000000000000600052603260045260246000fd5b6020026020010151815250908060018154018082558091505060019003906000526020600020906006020160009091909190915060008201518160000155602082015181600101908051906020019062000492929190620007ed565b506040820151816002019080519060200190620004b1929190620007ed565b50606082015181600301556080820151816004015560a0820151816005015550506000600782815481106200050f577f4e487b7100000000000000000000000000000000000000000000000000000000600052603260045260246000fd5b90600052602060002090600602016040518060c001604052908160008201548152602001600182018054620005449062000de5565b80601f0160208091040260200160405190810160405280929190818152602001828054620005729062000de5565b8015620005c35780601f106200059757610100808354040283529160200191620005c3565b820191906000526020600020905b815481529060010190602001808311620005a557829003601f168201915b50505050508152602001600282018054620005de9062000de5565b80601f01602080910402602001604051908101604052809291908181526020018280546200060c9062000de5565b80156200065d5780601f1062000631576101008083540402835291602001916200065d565b820191906000526020600020905b8154815290600101906020018083116200063f57829003601f168201915b5050505050815260200160038201548152602001600482015481526020016005820154815250509050620006c4604051806060016040528060258152602001620057a5602591398260200151836060015184604001516200070260201b62001d7e1760201c565b50600181620006d4919062000d48565b9050620002c3565b50620006f46006620007ae60201b62001e201760201c565b505050505050505062000ed3565b620007a8848484846040516024016200071f949392919062000c05565b6040516020818303038152906040527f8d142cdd000000000000000000000000000000000000000000000000000000007bffffffffffffffffffffffffffffffffffffffffffffffffffffffff19166020820180517bffffffffffffffffffffffffffffffffffffffffffffffffffffffff8381831617835250505050620007c460201b60201c565b50505050565b6001816000016000828254019250508190555050565b60008151905060006a636f6e736f6c652e6c6f679050602083016000808483855afa5050505050565b828054620007fb9062000de5565b90600052602060002090601f0160209004810192826200081f57600085556200086b565b82601f106200083a57805160ff19168380011785556200086b565b828001600101855582156200086b579182015b828111156200086a5782518255916020019190600101906200084d565b5b5090506200087a91906200087e565b5090565b5b80821115620008995760008160009055506001016200087f565b5090565b6000620008b4620008ae8462000c9b565b62000c67565b9050808382526020820190508260005b85811015620008f85781518501620008dd888262000a16565b845260208401935060208301925050600181019050620008c4565b5050509392505050565b600062000919620009138462000cca565b62000c67565b905080838252602082019050828560208602820111156200093957600080fd5b60005b858110156200096d578162000952888262000a43565b8452602084019350602083019250506001810190506200093c565b5050509392505050565b60006200098e620009888462000cf9565b62000c67565b905082815260208101848484011115620009a757600080fd5b620009b484828562000daf565b509392505050565b600082601f830112620009ce57600080fd5b8151620009e08482602086016200089d565b91505092915050565b600082601f830112620009fb57600080fd5b815162000a0d84826020860162000902565b91505092915050565b600082601f83011262000a2857600080fd5b815162000a3a84826020860162000977565b91505092915050565b60008151905062000a548162000eb9565b92915050565b600080600080600080600080610100898b03121562000a7857600080fd5b600089015167ffffffffffffffff81111562000a9357600080fd5b62000aa18b828c01620009bc565b985050602089015167ffffffffffffffff81111562000abf57600080fd5b62000acd8b828c01620009bc565b975050604089015167ffffffffffffffff81111562000aeb57600080fd5b62000af98b828c01620009e9565b965050606089015167ffffffffffffffff81111562000b1757600080fd5b62000b258b828c01620009e9565b955050608089015167ffffffffffffffff81111562000b4357600080fd5b62000b518b828c0162000a16565b94505060a089015167ffffffffffffffff81111562000b6f57600080fd5b62000b7d8b828c0162000a16565b93505060c062000b908b828c0162000a43565b92505060e062000ba38b828c0162000a43565b9150509295985092959890939650565b600062000bc08262000d2c565b62000bcc818562000d37565b935062000bde81856020860162000daf565b62000be98162000ea8565b840191505092915050565b62000bff8162000da5565b82525050565b6000608082019050818103600083015262000c21818762000bb3565b9050818103602083015262000c37818662000bb3565b905062000c48604083018562000bf4565b818103606083015262000c5c818462000bb3565b905095945050505050565b6000604051905081810181811067ffffffffffffffff8211171562000c915762000c9062000e79565b5b8060405250919050565b600067ffffffffffffffff82111562000cb95762000cb862000e79565b5b602082029050602081019050919050565b600067ffffffffffffffff82111562000ce85762000ce762000e79565b5b602082029050602081019050919050565b600067ffffffffffffffff82111562000d175762000d1662000e79565b5b601f19601f8301169050602081019050919050565b600081519050919050565b600082825260208201905092915050565b600062000d558262000da5565b915062000d628362000da5565b9250827fffffffffffffffffffffffffffffffffffffffffffffffffffffffffffffffff0382111562000d9a5762000d9962000e1b565b5b828201905092915050565b6000819050919050565b60005b8381101562000dcf57808201518184015260208101905062000db2565b8381111562000ddf576000848401525b50505050565b6000600282049050600182168062000dfe57607f821691505b6020821081141562000e155762000e1462000e4a565b5b50919050565b7f4e487b7100000000000000000000000000000000000000000000000000000000600052601160045260246000fd5b7f4e487b7100000000000000000000000000000000000000000000000000000000600052602260045260246000fd5b7f4e487b7100000000000000000000000000000000000000000000000000000000600052604160045260246000fd5b6000601f19601f8301169050919050565b62000ec48162000da5565b811462000ed057600080fd5b50565b6148c28062000ee36000396000f3fe608060405234801561001057600080fd5b50600436106101375760003560e01c806395d89b41116100b8578063b953084e1161007c578063b953084e14610369578063c87b56dd14610387578063c8cf27f4146103b7578063d4f24c5b146103d5578063e985e9c5146103df578063f8b81ef71461040f57610137565b806395d89b41146102bc57806398da4c95146102da578063a22cb4651461030f578063a9c326791461032b578063b88d4fde1461034d57610137565b806323b872dd116100ff57806323b872dd146101f457806342842e0e146102105780636352211e1461022c57806370a082311461025c5780637df124a11461028c57610137565b806301ffc9a71461013c5780630665f9611461016c57806306fdde031461018a578063081812fc146101a8578063095ea7b3146101d8575b600080fd5b610156600480360381019061015191906130f1565b61042b565b6040516101639190613e77565b60405180910390f35b61017461050d565b6040516101819190614210565b60405180910390f35b610192610669565b60405161019f9190613e92565b60405180910390f35b6101c260048036038101906101bd9190613143565b6106fb565b6040516101cf9190613db7565b60405180910390f35b6101f260048036038101906101ed91906130b5565b610780565b005b61020e60048036038101906102099190612faf565b610898565b005b61022a60048036038101906102259190612faf565b6108f8565b005b61024660048036038101906102419190613143565b610918565b6040516102539190613db7565b60405180910390f35b61027660048036038101906102719190612f4a565b6109ca565b6040516102839190614254565b60405180910390f35b6102a660048036038101906102a19190612f4a565b610a82565b6040516102b39190614254565b60405180910390f35b6102c4610a9a565b6040516102d19190613e92565b60405180910390f35b6102f460048036038101906102ef9190613143565b610b2c565b6040516103069695949392919061426f565b60405180910390f35b61032960048036038101906103249190613079565b610c78565b005b610333610df9565b604051610344959493929190613f61565b60405180910390f35b61036760048036038101906103629190612ffe565b610f2d565b005b610371610f8f565b60405161037e9190613e55565b60405180910390f35b6103a1600480360381019061039c9190613143565b61113a565b6040516103ae9190613e92565b60405180910390f35b6103bf611355565b6040516103cc9190614232565b60405180910390f35b6103dd61152d565b005b6103f960048036038101906103f49190612f73565b6118f6565b6040516104069190613e77565b60405180910390f35b61042960048036038101906104249190613143565b61198a565b005b60007f80ac58cd000000000000000000000000000000000000000000000000000000007bffffffffffffffffffffffffffffffffffffffffffffffffffffffff1916827bffffffffffffffffffffffffffffffffffffffffffffffffffffffff191614806104f657507f5b5e139f000000000000000000000000000000000000000000000000000000007bffffffffffffffffffffffffffffffffffffffffffffffffffffffff1916827bffffffffffffffffffffffffffffffffffffffffffffffffffffffff1916145b80610506575061050582611e36565b5b9050919050565b610515612d71565b60096040518060a0016040529081600082018054610532906145c0565b80601f016020809104026020016040519081016040528092919081815260200182805461055e906145c0565b80156105ab5780601f10610580576101008083540402835291602001916105ab565b820191906000526020600020905b81548152906001019060200180831161058e57829003601f168201915b505050505081526020016001820180546105c4906145c0565b80601f01602080910402602001604051908101604052809291908181526020018280546105f0906145c0565b801561063d5780601f106106125761010080835404028352916020019161063d565b820191906000526020600020905b81548152906001019060200180831161062057829003601f168201915b505050505081526020016002820154815260200160038201548152602001600482015481525050905090565b606060008054610678906145c0565b80601f01602080910402602001604051908101604052809291908181526020018280546106a4906145c0565b80156106f15780601f106106c6576101008083540402835291602001916106f1565b820191906000526020600020905b8154815290600101906020018083116106d457829003601f168201915b5050505050905090565b600061070682611ea0565b610745576040517f08c379a000000000000000000000000000000000000000000000000000000000815260040161073c90614190565b60405180910390fd5b6004600083815260200190815260200160002060009054906101000a900473ffffffffffffffffffffffffffffffffffffffff169050919050565b600061078b82610918565b90508073ffffffffffffffffffffffffffffffffffffffff168373ffffffffffffffffffffffffffffffffffffffff1614156107fc576040517f08c379a00000000000000000000000000000000000000000000000000000000081526004016107f3906141d0565b60405180910390fd5b8073ffffffffffffffffffffffffffffffffffffffff1661081b611f0c565b73ffffffffffffffffffffffffffffffffffffffff16148061084a575061084981610844611f0c565b6118f6565b5b610889576040517f08c379a0000000000000000000000000000000000000000000000000000000008152600401610880906140f0565b60405180910390fd5b6108938383611f14565b505050565b6108a96108a3611f0c565b82611fcd565b6108e8576040517f08c379a00000000000000000000000000000000000000000000000000000000081526004016108df906141f0565b60405180910390fd5b6108f38383836120ab565b505050565b61091383838360405180602001604052806000815250610f2d565b505050565b6000806002600084815260200190815260200160002060009054906101000a900473ffffffffffffffffffffffffffffffffffffffff169050600073ffffffffffffffffffffffffffffffffffffffff168173ffffffffffffffffffffffffffffffffffffffff1614156109c1576040517f08c379a00000000000000000000000000000000000000000000000000000000081526004016109b890614130565b60405180910390fd5b80915050919050565b60008073ffffffffffffffffffffffffffffffffffffffff168273ffffffffffffffffffffffffffffffffffffffff161415610a3b576040517f08c379a0000000000000000000000000000000000000000000000000000000008152600401610a3290614110565b60405180910390fd5b600360008373ffffffffffffffffffffffffffffffffffffffff1673ffffffffffffffffffffffffffffffffffffffff168152602001908152602001600020549050919050565b600e6020528060005260406000206000915090505481565b606060018054610aa9906145c0565b80601f0160208091040260200160405190810160405280929190818152602001828054610ad5906145c0565b8015610b225780601f10610af757610100808354040283529160200191610b22565b820191906000526020600020905b815481529060010190602001808311610b0557829003601f168201915b5050505050905090565b6008602052806000526040600020600091509050806000015490806001018054610b55906145c0565b80601f0160208091040260200160405190810160405280929190818152602001828054610b81906145c0565b8015610bce5780601f10610ba357610100808354040283529160200191610bce565b820191906000526020600020905b815481529060010190602001808311610bb157829003601f168201915b505050505090806002018054610be3906145c0565b80601f0160208091040260200160405190810160405280929190818152602001828054610c0f906145c0565b8015610c5c5780601f10610c3157610100808354040283529160200191610c5c565b820191906000526020600020905b815481529060010190602001808311610c3f57829003601f168201915b5050505050908060030154908060040154908060050154905086565b610c80611f0c565b73ffffffffffffffffffffffffffffffffffffffff168273ffffffffffffffffffffffffffffffffffffffff161415610cee576040517f08c379a0000000000000000000000000000000000000000000000000000000008152600401610ce5906140b0565b60405180910390fd5b8060056000610cfb611f0c565b73ffffffffffffffffffffffffffffffffffffffff1673ffffffffffffffffffffffffffffffffffffffff16815260200190815260200160002060008473ffffffffffffffffffffffffffffffffffffffff1673ffffffffffffffffffffffffffffffffffffffff16815260200190815260200160002060006101000a81548160ff0219169083151502179055508173ffffffffffffffffffffffffffffffffffffffff16610da8611f0c565b73ffffffffffffffffffffffffffffffffffffffff167f17307eab39ab6107e8899845ad3d59bd9653f200f220920489ca2b5937696c3183604051610ded9190613e77565b60405180910390a35050565b6009806000018054610e0a906145c0565b80601f0160208091040260200160405190810160405280929190818152602001828054610e36906145c0565b8015610e835780601f10610e5857610100808354040283529160200191610e83565b820191906000526020600020905b815481529060010190602001808311610e6657829003601f168201915b505050505090806001018054610e98906145c0565b80601f0160208091040260200160405190810160405280929190818152602001828054610ec4906145c0565b8015610f115780601f10610ee657610100808354040283529160200191610f11565b820191906000526020600020905b815481529060010190602001808311610ef457829003601f168201915b5050505050908060020154908060030154908060040154905085565b610f3e610f38611f0c565b83611fcd565b610f7d576040517f08c379a0000000000000000000000000000000000000000000000000000000008152600401610f74906141f0565b60405180910390fd5b610f8984848484612307565b50505050565b60606007805480602002602001604051908101604052809291908181526020016000905b8282101561113157838290600052602060002090600602016040518060c001604052908160008201548152602001600182018054610ff0906145c0565b80601f016020809104026020016040519081016040528092919081815260200182805461101c906145c0565b80156110695780601f1061103e57610100808354040283529160200191611069565b820191906000526020600020905b81548152906001019060200180831161104c57829003601f168201915b50505050508152602001600282018054611082906145c0565b80601f01602080910402602001604051908101604052809291908181526020018280546110ae906145c0565b80156110fb5780601f106110d0576101008083540402835291602001916110fb565b820191906000526020600020905b8154815290600101906020018083116110de57829003601f168201915b50505050508152602001600382015481526020016004820154815260200160058201548152505081526020019060010190610fb3565b50505050905090565b60606000600860008481526020019081526020016000206040518060c001604052908160008201548152602001600182018054611176906145c0565b80601f01602080910402602001604051908101604052809291908181526020018280546111a2906145c0565b80156111ef5780601f106111c4576101008083540402835291602001916111ef565b820191906000526020600020905b8154815290600101906020018083116111d257829003601f168201915b50505050508152602001600282018054611208906145c0565b80601f0160208091040260200160405190810160405280929190818152602001828054611234906145c0565b80156112815780601f1061125657610100808354040283529160200191611281565b820191906000526020600020905b81548152906001019060200180831161126457829003601f168201915b505050505081526020016003820154815260200160048201548152602001600582015481525050905060006112b98260600151612363565b905060006112ca8360800151612363565b905060006112db8460a00151612363565b9050600061132185602001516112f089612363565b876040015187878760405160200161130d96959493929190613cf0565b604051602081830303815290604052612510565b90506000816040516020016113369190613d95565b6040516020818303038152906040529050809650505050505050919050565b61135d612da0565b6000600e60003373ffffffffffffffffffffffffffffffffffffffff1673ffffffffffffffffffffffffffffffffffffffff168152602001908152602001600020549050600081111561151c57600860008281526020019081526020016000206040518060c0016040529081600082015481526020016001820180546113e2906145c0565b80601f016020809104026020016040519081016040528092919081815260200182805461140e906145c0565b801561145b5780601f106114305761010080835404028352916020019161145b565b820191906000526020600020905b81548152906001019060200180831161143e57829003601f168201915b50505050508152602001600282018054611474906145c0565b80601f01602080910402602001604051908101604052809291908181526020018280546114a0906145c0565b80156114ed5780601f106114c2576101008083540402835291602001916114ed565b820191906000526020600020905b8154815290600101906020018083116114d057829003601f168201915b50505050508152602001600382015481526020016004820154815260200160058201548152505091505061152a565b611524612da0565b80925050505b90565b61156b6040518060400160405280601181526020017f61747461636b626f73732063616c6c65640000000000000000000000000000008152506126ce565b6000600e60003373ffffffffffffffffffffffffffffffffffffffff1673ffffffffffffffffffffffffffffffffffffffff168152602001908152602001600020549050600060086000838152602001908152602001600020905061167e6040518060600160405280603c8152602001614851603c91398260010180546115f1906145c0565b80601f016020809104026020016040519081016040528092919081815260200182805461161d906145c0565b801561166a5780601f1061163f5761010080835404028352916020019161166a565b820191906000526020600020905b81548152906001019060200180831161164d57829003601f168201915b505050505083600301548460050154612767565b6117566040518060400160405280601b81526020017f426f73732025732068617320257320485020616e642025732041440000000000815250600960000180546116c7906145c0565b80601f01602080910402602001604051908101604052809291908181526020018280546116f3906145c0565b80156117405780601f1061171557610100808354040283529160200191611740565b820191906000526020600020905b81548152906001019060200180831161172357829003601f168201915b5050505050600960020154600960040154612767565b600081600301541161179d576040517f08c379a000000000000000000000000000000000000000000000000000000000815260040161179490614150565b60405180910390fd5b6000600960020154116117e5576040517f08c379a00000000000000000000000000000000000000000000000000000000081526004016117dc90614050565b60405180910390fd5b80600501546009600201541015611806576000600960020181905550611825565b806005015460096002015461181b91906144d6565b6009600201819055505b600960040154816003015410156118455760008160030181905550611863565b600960040154816003015461185a91906144d6565b81600301819055505b61188a60405180606001604052806025815260200161479660259139600960020154612809565b6118b06040518060600160405280602881526020016147fb602891398260030154612809565b7f838ab28464562786a6c4ab2311964b82fa60bd9b14aa7e856af1f3f18d41a41460096002015482600301546040516118ea9291906142de565b60405180910390a15050565b6000600560008473ffffffffffffffffffffffffffffffffffffffff1673ffffffffffffffffffffffffffffffffffffffff16815260200190815260200160002060008373ffffffffffffffffffffffffffffffffffffffff1673ffffffffffffffffffffffffffffffffffffffff16815260200190815260200160002060009054906101000a900460ff16905092915050565b600061199660066128a5565b90506119a233826128b3565b6040518060c00160405280838152602001600784815481106119ed577f4e487b7100000000000000000000000000000000000000000000000000000000600052603260045260246000fd5b90600052602060002090600602016001018054611a09906145c0565b80601f0160208091040260200160405190810160405280929190818152602001828054611a35906145c0565b8015611a825780601f10611a5757610100808354040283529160200191611a82565b820191906000526020600020905b815481529060010190602001808311611a6557829003601f168201915b5050505050815260200160078481548110611ac6577f4e487b7100000000000000000000000000000000000000000000000000000000600052603260045260246000fd5b90600052602060002090600602016002018054611ae2906145c0565b80601f0160208091040260200160405190810160405280929190818152602001828054611b0e906145c0565b8015611b5b5780601f10611b3057610100808354040283529160200191611b5b565b820191906000526020600020905b815481529060010190602001808311611b3e57829003601f168201915b5050505050815260200160078481548110611b9f577f4e487b7100000000000000000000000000000000000000000000000000000000600052603260045260246000fd5b906000526020600020906006020160030154815260200160078481548110611bf0577f4e487b7100000000000000000000000000000000000000000000000000000000600052603260045260246000fd5b906000526020600020906006020160030154815260200160078481548110611c41577f4e487b7100000000000000000000000000000000000000000000000000000000600052603260045260246000fd5b90600052602060002090600602016005015481525060086000838152602001908152602001600020600082015181600001556020820151816001019080519060200190611c8f929190612dd6565b506040820151816002019080519060200190611cac929190612dd6565b50606082015181600301556080820151816004015560a08201518160050155905050611cf16040518060600160405280602e8152602001614823602e913982846128d1565b80600e60003373ffffffffffffffffffffffffffffffffffffffff1673ffffffffffffffffffffffffffffffffffffffff16815260200190815260200160002081905550611d3f6006611e20565b7f4bc303fd457a97b4691b9af582ce71868a3d258638c8d4f8c60988a0f0bfb8cd338284604051611d7293929190613e1e565b60405180910390a15050565b611e1a84848484604051602401611d989493929190613eb4565b6040516020818303038152906040527f8d142cdd000000000000000000000000000000000000000000000000000000007bffffffffffffffffffffffffffffffffffffffffffffffffffffffff19166020820180517bffffffffffffffffffffffffffffffffffffffffffffffffffffffff8381831617835250505050612970565b50505050565b6001816000016000828254019250508190555050565b60007f01ffc9a7000000000000000000000000000000000000000000000000000000007bffffffffffffffffffffffffffffffffffffffffffffffffffffffff1916827bffffffffffffffffffffffffffffffffffffffffffffffffffffffff1916149050919050565b60008073ffffffffffffffffffffffffffffffffffffffff166002600084815260200190815260200160002060009054906101000a900473ffffffffffffffffffffffffffffffffffffffff1673ffffffffffffffffffffffffffffffffffffffff1614159050919050565b600033905090565b816004600083815260200190815260200160002060006101000a81548173ffffffffffffffffffffffffffffffffffffffff021916908373ffffffffffffffffffffffffffffffffffffffff160217905550808273ffffffffffffffffffffffffffffffffffffffff16611f8783610918565b73ffffffffffffffffffffffffffffffffffffffff167f8c5be1e5ebec7d5bd14f71427d1e84f3dd0314c0f7b2291e5b200ac8c7c3b92560405160405180910390a45050565b6000611fd882611ea0565b612017576040517f08c379a000000000000000000000000000000000000000000000000000000000815260040161200e906140d0565b60405180910390fd5b600061202283610918565b90508073ffffffffffffffffffffffffffffffffffffffff168473ffffffffffffffffffffffffffffffffffffffff16148061209157508373ffffffffffffffffffffffffffffffffffffffff16612079846106fb565b73ffffffffffffffffffffffffffffffffffffffff16145b806120a257506120a181856118f6565b5b91505092915050565b8273ffffffffffffffffffffffffffffffffffffffff166120cb82610918565b73ffffffffffffffffffffffffffffffffffffffff1614612121576040517f08c379a0000000000000000000000000000000000000000000000000000000008152600401612118906141b0565b60405180910390fd5b600073ffffffffffffffffffffffffffffffffffffffff168273ffffffffffffffffffffffffffffffffffffffff161415612191576040517f08c379a000000000000000000000000000000000000000000000000000000000815260040161218890614090565b60405180910390fd5b61219c838383612999565b6121a7600082611f14565b6001600360008573ffffffffffffffffffffffffffffffffffffffff1673ffffffffffffffffffffffffffffffffffffffff16815260200190815260200160002060008282546121f791906144d6565b925050819055506001600360008473ffffffffffffffffffffffffffffffffffffffff1673ffffffffffffffffffffffffffffffffffffffff168152602001908152602001600020600082825461224e91906143f5565b92505081905550816002600083815260200190815260200160002060006101000a81548173ffffffffffffffffffffffffffffffffffffffff021916908373ffffffffffffffffffffffffffffffffffffffff160217905550808273ffffffffffffffffffffffffffffffffffffffff168473ffffffffffffffffffffffffffffffffffffffff167fddf252ad1be2c89b69c2b068fc378daa952ba7f163c4a11628f55a4df523b3ef60405160405180910390a4505050565b6123128484846120ab565b61231e8484848461299e565b61235d576040517f08c379a000000000000000000000000000000000000000000000000000000000815260040161235490614030565b60405180910390fd5b50505050565b606060008214156123ab576040518060400160405280600181526020017f3000000000000000000000000000000000000000000000000000000000000000815250905061250b565b600082905060005b600082146123dd5780806123c6906145f2565b915050600a826123d6919061444b565b91506123b3565b60008167ffffffffffffffff81111561241f577f4e487b7100000000000000000000000000000000000000000000000000000000600052604160045260246000fd5b6040519080825280601f01601f1916602001820160405280156124515781602001600182028036833780820191505090505b5090505b600085146125045760018261246a91906144d6565b9150600a85612479919061463b565b603061248591906143f5565b60f81b8183815181106124c1577f4e487b7100000000000000000000000000000000000000000000000000000000600052603260045260246000fd5b60200101907effffffffffffffffffffffffffffffffffffffffffffffffffffffffffffff1916908160001a905350600a856124fd919061444b565b9450612455565b8093505050505b919050565b6060600082519050600081141561253957604051806020016040528060008152509150506126c9565b6000600360028361254a91906143f5565b612554919061444b565b6004612560919061447c565b9050600060208261257191906143f5565b67ffffffffffffffff8111156125b0577f4e487b7100000000000000000000000000000000000000000000000000000000600052604160045260246000fd5b6040519080825280601f01601f1916602001820160405280156125e25781602001600182028036833780820191505090505b50905060006040518060600160405280604081526020016147bb604091399050600181016020830160005b868110156126865760038101905062ffffff818a015116603f8160121c168401518060081b905060ff603f83600c1c1686015116810190508060081b905060ff603f8360061c1686015116810190508060081b905060ff603f831686015116810190508060e01b9050808452600484019350505061260d565b5060038606600181146126a057600281146126b0576126bb565b613d3d60f01b60028303526126bb565b603d60f81b60018303525b508484525050819450505050505b919050565b612764816040516024016126e29190613e92565b6040516020818303038152906040527f41304fac000000000000000000000000000000000000000000000000000000007bffffffffffffffffffffffffffffffffffffffffffffffffffffffff19166020820180517bffffffffffffffffffffffffffffffffffffffffffffffffffffffff8381831617835250505050612970565b50565b612803848484846040516024016127819493929190613f0e565b6040516020818303038152906040527fd5cf17d0000000000000000000000000000000000000000000000000000000007bffffffffffffffffffffffffffffffffffffffffffffffffffffffff19166020820180517bffffffffffffffffffffffffffffffffffffffffffffffffffffffff8381831617835250505050612970565b50505050565b6128a1828260405160240161281f929190613fc2565b6040516020818303038152906040527f9710a9d0000000000000000000000000000000000000000000000000000000007bffffffffffffffffffffffffffffffffffffffffffffffffffffffff19166020820180517bffffffffffffffffffffffffffffffffffffffffffffffffffffffff8381831617835250505050612970565b5050565b600081600001549050919050565b6128cd828260405180602001604052806000815250612b35565b5050565b61296b8383836040516024016128e993929190613ff2565b6040516020818303038152906040527f969cdd03000000000000000000000000000000000000000000000000000000007bffffffffffffffffffffffffffffffffffffffffffffffffffffffff19166020820180517bffffffffffffffffffffffffffffffffffffffffffffffffffffffff8381831617835250505050612970565b505050565b60008151905060006a636f6e736f6c652e6c6f679050602083016000808483855afa5050505050565b505050565b60006129bf8473ffffffffffffffffffffffffffffffffffffffff16612b90565b15612b28578373ffffffffffffffffffffffffffffffffffffffff1663150b7a026129e8611f0c565b8786866040518563ffffffff1660e01b8152600401612a0a9493929190613dd2565b602060405180830381600087803b158015612a2457600080fd5b505af1925050508015612a5557506040513d601f19601f82011682018060405250810190612a52919061311a565b60015b612ad8573d8060008114612a85576040519150601f19603f3d011682016040523d82523d6000602084013e612a8a565b606091505b50600081511415612ad0576040517f08c379a0000000000000000000000000000000000000000000000000000000008152600401612ac790614030565b60405180910390fd5b805181602001fd5b63150b7a0260e01b7bffffffffffffffffffffffffffffffffffffffffffffffffffffffff1916817bffffffffffffffffffffffffffffffffffffffffffffffffffffffff191614915050612b2d565b600190505b949350505050565b612b3f8383612ba3565b612b4c600084848461299e565b612b8b576040517f08c379a0000000000000000000000000000000000000000000000000000000008152600401612b8290614030565b60405180910390fd5b505050565b600080823b905060008111915050919050565b600073ffffffffffffffffffffffffffffffffffffffff168273ffffffffffffffffffffffffffffffffffffffff161415612c13576040517f08c379a0000000000000000000000000000000000000000000000000000000008152600401612c0a90614170565b60405180910390fd5b612c1c81611ea0565b15612c5c576040517f08c379a0000000000000000000000000000000000000000000000000000000008152600401612c5390614070565b60405180910390fd5b612c6860008383612999565b6001600360008473ffffffffffffffffffffffffffffffffffffffff1673ffffffffffffffffffffffffffffffffffffffff1681526020019081526020016000206000828254612cb891906143f5565b92505081905550816002600083815260200190815260200160002060006101000a81548173ffffffffffffffffffffffffffffffffffffffff021916908373ffffffffffffffffffffffffffffffffffffffff160217905550808273ffffffffffffffffffffffffffffffffffffffff16600073ffffffffffffffffffffffffffffffffffffffff167fddf252ad1be2c89b69c2b068fc378daa952ba7f163c4a11628f55a4df523b3ef60405160405180910390a45050565b6040518060a0016040528060608152602001606081526020016000815260200160008152602001600081525090565b6040518060c001604052806000815260200160608152602001606081526020016000815260200160008152602001600081525090565b828054612de2906145c0565b90600052602060002090601f016020900481019282612e045760008555612e4b565b82601f10612e1d57805160ff1916838001178555612e4b565b82800160010185558215612e4b579182015b82811115612e4a578251825591602001919060010190612e2f565b5b509050612e589190612e5c565b5090565b5b80821115612e75576000816000905550600101612e5d565b5090565b6000612e8c612e8784614338565b614307565b905082815260208101848484011115612ea457600080fd5b612eaf84828561457e565b509392505050565b600081359050612ec681614739565b92915050565b600081359050612edb81614750565b92915050565b600081359050612ef081614767565b92915050565b600081519050612f0581614767565b92915050565b600082601f830112612f1c57600080fd5b8135612f2c848260208601612e79565b91505092915050565b600081359050612f448161477e565b92915050565b600060208284031215612f5c57600080fd5b6000612f6a84828501612eb7565b91505092915050565b60008060408385031215612f8657600080fd5b6000612f9485828601612eb7565b9250506020612fa585828601612eb7565b9150509250929050565b600080600060608486031215612fc457600080fd5b6000612fd286828701612eb7565b9350506020612fe386828701612eb7565b9250506040612ff486828701612f35565b9150509250925092565b6000806000806080858703121561301457600080fd5b600061302287828801612eb7565b945050602061303387828801612eb7565b935050604061304487828801612f35565b925050606085013567ffffffffffffffff81111561306157600080fd5b61306d87828801612f0b565b91505092959194509250565b6000806040838503121561308c57600080fd5b600061309a85828601612eb7565b92505060206130ab85828601612ecc565b9150509250929050565b600080604083850312156130c857600080fd5b60006130d685828601612eb7565b92505060206130e785828601612f35565b9150509250929050565b60006020828403121561310357600080fd5b600061311184828501612ee1565b91505092915050565b60006020828403121561312c57600080fd5b600061313a84828501612ef6565b91505092915050565b60006020828403121561315557600080fd5b600061316384828501612f35565b91505092915050565b60006131788383613bb2565b905092915050565b6131898161450a565b82525050565b600061319a82614378565b6131a481856143a6565b9350836020820285016131b685614368565b8060005b858110156131f257848403895281516131d3858261316c565b94506131de83614399565b925060208a019950506001810190506131ba565b50829750879550505050505092915050565b61320d8161451c565b82525050565b600061321e82614383565b61322881856143b7565b935061323881856020860161458d565b61324181614728565b840191505092915050565b60006132578261438e565b61326181856143c8565b935061327181856020860161458d565b61327a81614728565b840191505092915050565b60006132908261438e565b61329a81856143d9565b93506132aa81856020860161458d565b6132b381614728565b840191505092915050565b60006132c98261438e565b6132d381856143ea565b93506132e381856020860161458d565b80840191505092915050565b60006132fc600b836143ea565b91507f202d2d204e465420233a200000000000000000000000000000000000000000006000830152600b82019050919050565b600061333c6032836143d9565b91507f4552433732313a207472616e7366657220746f206e6f6e20455243373231526560008301527f63656976657220696d706c656d656e74657200000000000000000000000000006020830152604082019050919050565b60006133a26028836143d9565b91507f4572726f723a20626f7373206d757374206861766520485020746f206174746160008301527f636b20626f73732e0000000000000000000000000000000000000000000000006020830152604082019050919050565b6000613408601c836143d9565b91507f4552433732313a20746f6b656e20616c7265616479206d696e746564000000006000830152602082019050919050565b6000613448600e836143ea565b91507f2c20226d61785f76616c7565223a0000000000000000000000000000000000006000830152600e82019050919050565b60006134886024836143d9565b91507f4552433732313a207472616e7366657220746f20746865207a65726f2061646460008301527f72657373000000000000000000000000000000000000000000000000000000006020830152604082019050919050565b60006134ee6019836143d9565b91507f4552433732313a20617070726f766520746f2063616c6c6572000000000000006000830152602082019050919050565b600061352e602c836143d9565b91507f4552433732313a206f70657261746f7220717565727920666f72206e6f6e657860008301527f697374656e7420746f6b656e00000000000000000000000000000000000000006020830152604082019050919050565b60006135946038836143d9565b91507f4552433732313a20617070726f76652063616c6c6572206973206e6f74206f7760008301527f6e6572206e6f7220617070726f76656420666f7220616c6c00000000000000006020830152604082019050919050565b60006135fa602a836143d9565b91507f4552433732313a2062616c616e636520717565727920666f7220746865207a6560008301527f726f2061646472657373000000000000000000000000000000000000000000006020830152604082019050919050565b60006136606029836143d9565b91507f4552433732313a206f776e657220717565727920666f72206e6f6e657869737460008301527f656e7420746f6b656e00000000000000000000000000000000000000000000006020830152604082019050919050565b60006136c66062836143ea565b91507f222c20226465736372697074696f6e223a20225468697320697320616e204e4660008301527f542074686174206c6574732070656f706c6520706c617920696e20746865206760208301527f616d65204d657461766572736520536c6179657221222c2022696d616765223a60408301527f20220000000000000000000000000000000000000000000000000000000000006060830152606282019050919050565b6000613778602d836143d9565b91507f4572726f723a20636861726163746572206d757374206861766520485020746f60008301527f2061747461636b20626f73732e000000000000000000000000000000000000006020830152604082019050919050565b60006137de6004836143ea565b91507f7d205d7d000000000000000000000000000000000000000000000000000000006000830152600482019050919050565b600061381e6020836143d9565b91507f4552433732313a206d696e7420746f20746865207a65726f20616464726573736000830152602082019050919050565b600061385e602c836143d9565b91507f4552433732313a20617070726f76656420717565727920666f72206e6f6e657860008301527f697374656e7420746f6b656e00000000000000000000000000000000000000006020830152604082019050919050565b60006138c46029836143d9565b91507f4552433732313a207472616e73666572206f6620746f6b656e2074686174206960008301527f73206e6f74206f776e00000000000000000000000000000000000000000000006020830152604082019050919050565b600061392a600a836143ea565b91507f7b226e616d65223a2022000000000000000000000000000000000000000000006000830152600a82019050919050565b600061396a6021836143d9565b91507f4552433732313a20617070726f76616c20746f2063757272656e74206f776e6560008301527f72000000000000000000000000000000000000000000000000000000000000006020830152604082019050919050565b60006139d0601d836143ea565b91507f646174613a6170706c69636174696f6e2f6a736f6e3b6261736536342c0000006000830152601d82019050919050565b6000613a106031836143d9565b91507f4552433732313a207472616e736665722063616c6c6572206973206e6f74206f60008301527f776e6572206e6f7220617070726f7665640000000000000000000000000000006020830152604082019050919050565b6000613a76603d836143ea565b91507f222c202261747472696275746573223a205b207b202274726169745f7479706560008301527f223a20224865616c746820506f696e7473222c202276616c7565223a200000006020830152603d82019050919050565b6000613adc602d836143ea565b91507f7d2c207b202274726169745f74797065223a202241747461636b2044616d616760008301527f65222c202276616c7565223a20000000000000000000000000000000000000006020830152602d82019050919050565b600060a0830160008301518482036000860152613b52828261324c565b91505060208301518482036020860152613b6c828261324c565b9150506040830151613b816040860182613cd2565b506060830151613b946060860182613cd2565b506080830151613ba76080860182613cd2565b508091505092915050565b600060c083016000830151613bca6000860182613cd2565b5060208301518482036020860152613be2828261324c565b91505060408301518482036040860152613bfc828261324c565b9150506060830151613c116060860182613cd2565b506080830151613c246080860182613cd2565b5060a0830151613c3760a0860182613cd2565b508091505092915050565b600060c083016000830151613c5a6000860182613cd2565b5060208301518482036020860152613c72828261324c565b91505060408301518482036040860152613c8c828261324c565b9150506060830151613ca16060860182613cd2565b506080830151613cb46080860182613cd2565b5060a0830151613cc760a0860182613cd2565b508091505092915050565b613cdb81614574565b82525050565b613cea81614574565b82525050565b6000613cfb8261391d565b9150613d0782896132be565b9150613d12826132ef565b9150613d1e82886132be565b9150613d29826136b9565b9150613d3582876132be565b9150613d4082613a69565b9150613d4c82866132be565b9150613d578261343b565b9150613d6382856132be565b9150613d6e82613acf565b9150613d7a82846132be565b9150613d85826137d1565b9150819050979650505050505050565b6000613da0826139c3565b9150613dac82846132be565b915081905092915050565b6000602082019050613dcc6000830184613180565b92915050565b6000608082019050613de76000830187613180565b613df46020830186613180565b613e016040830185613ce1565b8181036060830152613e138184613213565b905095945050505050565b6000606082019050613e336000830186613180565b613e406020830185613ce1565b613e4d6040830184613ce1565b949350505050565b60006020820190508181036000830152613e6f818461318f565b905092915050565b6000602082019050613e8c6000830184613204565b92915050565b60006020820190508181036000830152613eac8184613285565b905092915050565b60006080820190508181036000830152613ece8187613285565b90508181036020830152613ee28186613285565b9050613ef16040830185613ce1565b8181036060830152613f038184613285565b905095945050505050565b60006080820190508181036000830152613f288187613285565b90508181036020830152613f3c8186613285565b9050613f4b6040830185613ce1565b613f586060830184613ce1565b95945050505050565b600060a0820190508181036000830152613f7b8188613285565b90508181036020830152613f8f8187613285565b9050613f9e6040830186613ce1565b613fab6060830185613ce1565b613fb86080830184613ce1565b9695505050505050565b60006040820190508181036000830152613fdc8185613285565b9050613feb6020830184613ce1565b9392505050565b6000606082019050818103600083015261400c8186613285565b905061401b6020830185613ce1565b6140286040830184613ce1565b949350505050565b600060208201905081810360008301526140498161332f565b9050919050565b6000602082019050818103600083015261406981613395565b9050919050565b60006020820190508181036000830152614089816133fb565b9050919050565b600060208201905081810360008301526140a98161347b565b9050919050565b600060208201905081810360008301526140c9816134e1565b9050919050565b600060208201905081810360008301526140e981613521565b9050919050565b6000602082019050818103600083015261410981613587565b9050919050565b60006020820190508181036000830152614129816135ed565b9050919050565b6000602082019050818103600083015261414981613653565b9050919050565b600060208201905081810360008301526141698161376b565b9050919050565b6000602082019050818103600083015261418981613811565b9050919050565b600060208201905081810360008301526141a981613851565b9050919050565b600060208201905081810360008301526141c9816138b7565b9050919050565b600060208201905081810360008301526141e98161395d565b9050919050565b6000602082019050818103600083015261420981613a03565b9050919050565b6000602082019050818103600083015261422a8184613b35565b905092915050565b6000602082019050818103600083015261424c8184613c42565b905092915050565b60006020820190506142696000830184613ce1565b92915050565b600060c0820190506142846000830189613ce1565b81810360208301526142968188613285565b905081810360408301526142aa8187613285565b90506142b96060830186613ce1565b6142c66080830185613ce1565b6142d360a0830184613ce1565b979650505050505050565b60006040820190506142f36000830185613ce1565b6143006020830184613ce1565b9392505050565b6000604051905081810181811067ffffffffffffffff8211171561432e5761432d6146f9565b5b8060405250919050565b600067ffffffffffffffff821115614353576143526146f9565b5b601f19601f8301169050602081019050919050565b6000819050602082019050919050565b600081519050919050565b600081519050919050565b600081519050919050565b6000602082019050919050565b600082825260208201905092915050565b600082825260208201905092915050565b600082825260208201905092915050565b600082825260208201905092915050565b600081905092915050565b600061440082614574565b915061440b83614574565b9250827fffffffffffffffffffffffffffffffffffffffffffffffffffffffffffffffff038211156144405761443f61466c565b5b828201905092915050565b600061445682614574565b915061446183614574565b9250826144715761447061469b565b5b828204905092915050565b600061448782614574565b915061449283614574565b9250817fffffffffffffffffffffffffffffffffffffffffffffffffffffffffffffffff04831182151516156144cb576144ca61466c565b5b828202905092915050565b60006144e182614574565b91506144ec83614574565b9250828210156144ff576144fe61466c565b5b828203905092915050565b600061451582614554565b9050919050565b60008115159050919050565b60007fffffffff0000000000000000000000000000000000000000000000000000000082169050919050565b600073ffffffffffffffffffffffffffffffffffffffff82169050919050565b6000819050919050565b82818337600083830152505050565b60005b838110156145ab578082015181840152602081019050614590565b838111156145ba576000848401525b50505050565b600060028204905060018216806145d857607f821691505b602082108114156145ec576145eb6146ca565b5b50919050565b60006145fd82614574565b91507fffffffffffffffffffffffffffffffffffffffffffffffffffffffffffffffff8214156146305761462f61466c565b5b600182019050919050565b600061464682614574565b915061465183614574565b9250826146615761466061469b565b5b828206905092915050565b7f4e487b7100000000000000000000000000000000000000000000000000000000600052601160045260246000fd5b7f4e487b7100000000000000000000000000000000000000000000000000000000600052601260045260246000fd5b7f4e487b7100000000000000000000000000000000000000000000000000000000600052602260045260246000fd5b7f4e487b7100000000000000000000000000000000000000000000000000000000600052604160045260246000fd5b6000601f19601f8301169050919050565b6147428161450a565b811461474d57600080fd5b50565b6147598161451c565b811461476457600080fd5b50565b61477081614528565b811461477b57600080fd5b50565b61478781614574565b811461479257600080fd5b5056fe506c617965722061747461636b656420626f73732e204e657720626f73732068703a2025734142434445464748494a4b4c4d4e4f505152535455565758595a6162636465666768696a6b6c6d6e6f707172737475767778797a303132333435363738392b2f426f73732061747461636b656420706c617965722e204e657720706c617965722068703a2025730a4d696e746564204e465420772f20746f6b656e496420257320616e6420636861726163746572496e6465782025730a506c6179657220772f206368617261637465722025732061626f757420746f2061747461636b2e2048617320257320485020616e64202573204144a26469706673582212209121bb66d429a87009805184a72cd6a4549219ba88869c006f16d73d67a6c95f64736f6c63430008000033446f6e6520696e697469616c697a696e6720257320772f2048502025732c20696d67202573446f6e6520696e697469616c697a696e6720626f737320257320772f2048502025732c20696d67202573",
  "linkReferences": {},
  "deployedLinkReferences": {}
}